S0190000456E7669726F6E6D656E7453656E736F722E73726563FC
S113000071C000008EC000008CC000008AC00000D7
S113001088C0000086C0000084C0000082C00000C8
S113002080C000007EC000007CC000007AC00000D8
S113003078C0000076C0000074C0000072C00000E8
S113004070C000006EC000006CC000006AC00000F8
S113005068C0000066C0000064C0000071C00000F9
S113006060C000005EC000005CC000005AC0000018
S113007058C0000056C0000054C0000052C0000028
S113008050C000004EC000004CC000004AC0000038
S113009048C0000046C0000044C0000042C0000048
S11300A040C000003EC000003CC000003AC0000058
S11300B038C0000036C0000034C0000032C0000068
S11300C030C000002EC000002CC000002AC0000078
S11300D028C0000026C0000024C0000022C0000088
S11300E020C0000011241FBECFEFD1E2DEBFCDBF80
S11300F000E00CBF12E0A0E0B2E0ECE9F2E000E0C6
S11301000BBF02C007900D92A030B107D9F722E0CF
S1130110A0E0B2E001C01D92A930B207E1F705D01A
S1130120BBC06ECF08950895089554D0FDDFFADF63
S1130130C0E0D0E0F8DF2097E9F30E940000FACF96
S11301401F920F920FB60F9211242F933F938F9308
S11301509F93AF93BF938091010290910202A0916B
S11301600302B09104023091000223E0230F2D37E3
S113017020F40196A11DB11D05C026E8230F0296A7
S1130180A11DB11D209300028093010290930202ED
S1130190A0930302B0930402809105029091060299
S11301A0A0910702B09108020196A11DB11D809390
S11301B0050290930602A0930702B0930802BF9130
S11301C0AF919F918F913F912F910F900FBE0F9000
S11301D01F901895789484B5826084BD84B581603D
S11301E084BD85B5826085BD85B5816085BDEEE63B
S11301F0F0E0808181608083E1E8F0E0108280811A
S113020082608083808181608083E0E8F0E0808187
S113021081608083E1EBF0E0808184608083E0EBA7
S1130220F0E0808181608083E1E9F0E08081826098
S11302308083808181608083E0E9F0E08081816057
S11302408083E1EAF0E08081826080838081816044
S11302508083E0EAF0E0808181608083E1E2F1E084
S1130260808182608083808181608083E0E2F1E02C
S1130270808181608083EAE7F0E08081846080830C
S113028080818260808380818160808380818068B6
S10F029080831092C1000895F894FFCF01
S9030000FC
